{
  "contractName": "TestRegistrar",
  "abi": [
    {
      "constant": true,
      "inputs": [],
      "name": "ens",
      "outputs": [
        {
          "name": "",
          "type": "address"
        }
      ],
      "payable": false,
      "stateMutability": "view",
      "type": "function"
    },
    {
      "constant": true,
      "inputs": [
        {
          "name": "",
          "type": "bytes32"
        }
      ],
      "name": "expiryTimes",
      "outputs": [
        {
          "name": "",
          "type": "uint256"
        }
      ],
      "payable": false,
      "stateMutability": "view",
      "type": "function"
    },
    {
      "constant": true,
      "inputs": [],
      "name": "rootNode",
      "outputs": [
        {
          "name": "",
          "type": "bytes32"
        }
      ],
      "payable": false,
      "stateMutability": "view",
      "type": "function"
    },
    {
      "inputs": [
        {
          "name": "ensAddr",
          "type": "address"
        },
        {
          "name": "node",
          "type": "bytes32"
        }
      ],
      "payable": false,
      "stateMutability": "nonpayable",
      "type": "constructor"
    },
    {
      "constant": false,
      "inputs": [
        {
          "name": "label",
          "type": "bytes32"
        },
        {
          "name": "owner",
          "type": "address"
        }
      ],
      "name": "register",
      "outputs": [],
      "payable": false,
      "stateMutability": "nonpayable",
      "type": "function"
    }
  ],
  "bytecode": "0x608060405234801561001057600080fd5b506040516040806103cd8339810180604052604081101561003057600080fd5b810190808051906020019092919080519060200190929190505050816000806101000a81548173ffffffffffffffffffffffffffffffffffffffff021916908373ffffffffffffffffffffffffffffffffffffffff16021790555080600181905550505061032a806100a36000396000f3fe608060405260043610610062576000357c0100000000000000000000000000000000000000000000000000000000900463ffffffff1680633f15457f14610067578063af9f26e4146100be578063d22057a91461010d578063faff50a814610168575b600080fd5b34801561007357600080fd5b5061007c610193565b604051808273ffffffffffffffffffffffffffffffffffffffff1673ffffffffffffffffffffffffffffffffffffffff16815260200191505060405180910390f35b3480156100ca57600080fd5b506100f7600480360360208110156100e157600080fd5b81019080803590602001909291905050506101b8565b6040518082815260200191505060405180910390f35b34801561011957600080fd5b506101666004803603604081101561013057600080fd5b8101908080359060200190929190803573ffffffffffffffffffffffffffffffffffffffff1690602001909291905050506101d0565b005b34801561017457600080fd5b5061017d6102f8565b6040518082815260200191505060405180910390f35b6000809054906101000a900473ffffffffffffffffffffffffffffffffffffffff1681565b60026020528060005260406000206000915090505481565b4260026000848152602001908152602001600020541015156101f157600080fd5b6224ea00420160026000848152602001908152602001600020819055506000809054906101000a900473ffffffffffffffffffffffffffffffffffffffff1673ffffffffffffffffffffffffffffffffffffffff166306ab592360015484846040518463ffffffff167c0100000000000000000000000000000000000000000000000000000000028152600401808481526020018381526020018273ffffffffffffffffffffffffffffffffffffffff1673ffffffffffffffffffffffffffffffffffffffff1681526020019350505050600060405180830381600087803b1580156102dc57600080fd5b505af11580156102f0573d6000803e3d6000fd5b505050505050565b6001548156fea165627a7a72305820f69707cabb5cf1e87333c46417863bbf3f6169db9179dbe5524c937db6b15a550029",
  "source": "pragma solidity >=0.4.24;\n\nimport \"./ENS.sol\";\n\n/**\n * A registrar that allocates subdomains to the first person to claim them, but\n * expires registrations a fixed period after they're initially claimed.\n */\ncontract TestRegistrar {\n    uint constant registrationPeriod = 4 weeks;\n\n    ENS public ens;\n    bytes32 public rootNode;\n    mapping (bytes32 => uint) public expiryTimes;\n\n    /**\n     * Constructor.\n     * @param ensAddr The address of the ENS registry.\n     * @param node The node that this registrar administers.\n     */\n    constructor(ENS ensAddr, bytes32 node) public {\n        ens = ensAddr;\n        rootNode = node;\n    }\n\n    /**\n     * Register a name that's not currently registered\n     * @param label The hash of the label to register.\n     * @param owner The address of the new owner.\n     */\n    function register(bytes32 label, address owner) public {\n        require(expiryTimes[label] < now);\n\n        expiryTimes[label] = now + registrationPeriod;\n        ens.setSubnodeOwner(rootNode, label, owner);\n    }\n}\n",
  "sourcePath": "/home/jonah/ens/contracts/TestRegistrar.sol",
  "compiler": {
    "name": "solc",
    "version": "0.5.0+commit.1d4f565a.Emscripten.clang"
  },
  "schemaVersion": "3.0.9",
  "updatedAt": "2019-07-13T22:08:48.349Z",
  "devdoc": {
    "methods": {
      "constructor": {
        "params": {
          "ensAddr": "The address of the ENS registry.",
          "node": "The node that this registrar administers."
        }
      },
      "register(bytes32,address)": {
        "params": {
          "label": "The hash of the label to register.",
          "owner": "The address of the new owner."
        }
      }
    }
  },
  "userdoc": {
    "methods": {
      "constructor": "Constructor.",
      "register(bytes32,address)": {
        "notice": "Register a name that's not currently registered"
      }
    },
    "notice": "A registrar that allocates subdomains to the first person to claim them, but expires registrations a fixed period after they're initially claimed."
  }
}